:020000040800F2
:100000002007002081020008512B00082D2700083E
:100010004D2B000845100008593000080000000072
:100020000000000000000000000000003D3000085B
:10003000BD140008000000003930000841300008FD
:100040009B0200089B0200089B0200089B0200081C
:100050009B0200089B0200089B0200089B0200080C
:100060009B0200089B0200089B0200089B020008FC
:100070009B0200089B0200089B0200089B020008EC
:100080009B0200089B0200089B0200089B020008DC
:100090009B0200089B0200089B0200089B020008CC
:1000A0009B0200089B0200089B0200089B020008BC
:1000B0009B0200089B0200089B0200089B020008AC
:1000C0009B0200089B0200089B0200089B0200089C
:1000D0009B0200089B0200089B0200089B0200088C
:1000E0009B0200089B0200089B0200089B0200087C
:1000F0009B0200089B0200089B0200089B0200086C
:100100009B0200089B0200089B0200089B0200085B
:100110009B0200089B0200089B0200089B0200084B
:100120009B0200089B0200089B0200089B0200083B
:100130009B0200089B0200089B0200089B0200082B
:100140009B0200089B0200089B0200089B0200081B
:100150009B0200089B0200089B0200089B0200080B
:100160009B0200089B0200089B0200089B020008FB
:100170009B0200089B0200089B0200080000000090
:100180009B0200089B02000800F002F800F068F8EB
:1001900014A696E8000CB244B344DA4501D100F04D
:1001A0005FF8BAE80F000FA696E83000A5EB04054B
:1001B00004EB0607AAEB0704A7F101074FEA1515A0
:1001C0004FEA3414A4F10104AC4201D300F048F822
:1001D00013F0010F18BFFB1A43F0010300F001F800
:1001E000DBE71847983D0000B83D0000103A24BFF7
:1001F00078C878C1FAD8520724BF30C830C144BF8C
:1002000004680C6070470000704700000023002461
:1002100000250026103A28BF78C1FBD8520728BF16
:1002200030C148BF0B607047662903F00B85652914
:1002300003F00885672903F00585612903F004852B
:10024000002070471FB503F0F0FC00F085FD0400AE
:100250000020002103F05CFCE0601FBD10B510BD64
:1002600000F07AFE1146FFF7EDFF02F0F7FE00F016
:1002700098FE03B4FFF7F2FF03BC00F0DBFE0000C2
:100280000948804709480047FEE7FEE7FEE7FEE72A
:10029000FEE7FEE7FEE7FEE7FEE7FEE70448054966
:1002A000054A064B704700004530000889010008E8
:1002B0002001002020070020200300202003002030
:1002C00053EA020C00F069802DE9F04B4FF0000674
:1002D000002B1FBFB3FA83F503FA05F424FA05F6E1
:1002E0005E4012BF1643B2FA82F502FA05F4C5F178
:1002F00020051EBF22FA05FC44EA0C04203556EA0C
:10030000044C4FEA144418BF641C4FF000084FF02F
:100310000009904271EB030C39D3002919BFB1FADF
:1003200081F701FA07F6B0FA80F700FA07F6C7F18D
:1003300020071EBF20FA07FC46EA0C062037B6FB52
:10034000F4FCA7EB0507103F07F01F0BCBF12006CD
:100350002CFA06F60CFA0BFB44BFB3460026202FFE
:10036000A4BF5E464FF0000B5BEA060C08BF4FF0DF
:10037000010B19EB0B0948EB0608ABFB027C06FBF3
:1003800002CC0BFB03CCC01B71EB0C01C1E70B468D
:10039000024641464846BDE8F08B13B5084318BFF6
:1003A0004FF0FF300146AFF30080BDE81C407047BE
:1003B0000FB41CB5074B06AA7B446946009005980C
:1003C00000F0B1FC0020694600F0C0FC1CBC5DF8E8
:1003D00014FB00009109000070B5044685690068AF
:1003E000C10601D5302600E02026C00707D070BD29
:1003F000D4E9012130469047206A401C20626D1EDE
:10040000F6D570BD70B5044685690078C00707D180
:1004100070BDD4E9012120209047206A401C206251
:100420006D1EF6D570BD00002DE9F05F89460446CB
:100430004FF0000ADFF874B1FB44C0F820A020465A
:10044000E1688847002874D0252806D0D4E9012126
:100450009047206A401C2062F1E700265F46204654
:10046000E16888472028054607DB312D05D2781939
:1004700010F8200C08B10643F1E7B00701D526F0CB
:100480000406C4F81CA00027C4F818A02A2D09D01F
:10049000284603F035FB38B304EB8708303DC8F835
:1004A000185019E059F8041B204604EB87029161AB
:1004B000E1688847012F054618D1E069002820DA55
:1004C00026F020061DE0D8F8180000EB800005EBB0
:1004D00040003038C8F818002046E16888470546D3
:1004E00003F00EFB0028EED1012F0AD02E2D08D1EB
:1004F0002046E16888477F1C0546022F46F020060B
:10050000C4DBA069002803DA404246F00106A0617E
:10051000F00701D026F010066C2D0BD0682D09D005
:100520004C2D39D06A2D35D0742D35D07A2D33D05D
:1005300016E038E0E1682F4620468847B842054675
:1005400009D16C2F26D04FF48060E1680643204625
:100550008847054604E06C2F1AD04FF4807006439C
:100560000DB3A5F14100192802D8203546F40066E4
:100570004A462946204626604E46FFF755FE80B182
:1005800001280BD0F61D26F0070000F1080956E7F8
:100590004020E4E78020D8E70020D6E706F10409F0
:1005A0004DE7284652E7206ABDE8F09F103800006A
:1005B0004FF0000200B5134694469646203922BFFC
:1005C000A0E80C50A0E80C50B1F12001BFF4F7AF47
:1005D000090728BFA0E80C5048BF0CC05DF804EB29
:1005E000890028BF40F8042B08BF704748BF20F897
:1005F000022B11F0804F18BF00F8012B7047704795
:10060000704770472DE9FF4F0C461E464FF0FF37ED
:100610008BB0D2E90001DDF860800A908A46C1F310
:100620000A5505B93D46002108464FF00000BAF1D1
:10063000000F00F4400005DA00EB80004FF44001A9
:1006400001EA50004FEA9059B9F1010F00DDB946B7
:100650000A9850EA4A000ED044F61050A5F2FF3531
:1006600045432F14B8F1000F1ED07542291E1EDD20
:10067000C9F100021CE0B8F1010F4FF0000001D0F9
:10068000302103E0F24305E02154401CB042FBDB83
:1006900030460022002121540B99C1F80880C1E99D
:1006A00000200FB0BDE8F08FBD1B6D1CDEE74A4691
:1006B00000DA694206A800F0D9FB06AB93E8070010
:1006C00003AB83E8070050460A9902F039FE8DE833
:1006D0000700A0F500501F3800900398002D0ADD98
:1006E00042F21F014A460844002303A903906846CA
:1006F00003F0A2F809E0A0F500504A461F38002395
:1007000003A90390684603F0ACF88DE807000004E5
:10071000000C03D04FF0FF30410800E01046B8F164
:10072000000F03D00022009215461EE0751E05D46E
:1007300000F016FB303262556D1EF9D5B34601222A
:10074000084302D000227F1C04E02078302801D129
:1007500000227F1E002A099784D01DE0112D07DAA0
:1007600000F0FEFA303262556D1C50EA0102F5D1FC
:10077000084302D00098C8B10EE00021681E05E0D1
:10078000235C625C63542254401E491C8142F7DBA7
:10079000AB46A81B401E0990002004F80B000B98E4
:1007A000099AC0F80880C0E9002B7AE711264FF0BB
:1007B000000857E72DE9F04F88460446D21D22F085
:1007C000070191B0D1E90001CDE90A0103F080F9F8
:1007D00002460B98C00F01D02D2007E0206881074A
:1007E00001D52B2002E0202101EAC000032A099054
:1007F00001D0072A05DB03464146204600F0F6FA01
:100800000BE12078800601D5E06900E00620B8F110
:10081000650F814606D0B8F1660F18D0B8F1670FA2
:1008200070D131E00020B9F1110F009001DB1123EC
:1008300001E009F101030AAA01A90CA8FFF7E2FEF1
:10084000DDE90C70002609F10105834647E001202F
:100850004B4600904FF000470AAA01A90CA8FFF7E9
:10086000D1FEDDE90DB00C995D46002610B909F105
:1008700001000D18B9EB050003D4C0F1FF3609F1F2
:100880000105A5EB09002BE0B9F1010F01DA4FF0EA
:1008900001090020B9F1110F0090484601DD112334
:1008A00000E003460AAA01A90CA8FFF7ABFEDDE9A8
:1008B0000C704D4600268346207800070AD4AB45CD
:1008C00000DA5D4601A8012D04DD411911F8011C73
:1008D000302907D04F4502DA17F1040F04DA01205E
:1008E00082460FE06D1EEEE7002F02DCED1B3E445A
:1008F00003E0781CA84200DD7D1CB81B00F1010A52
:100900004FF000472078000703D4AA4501DB4FF0E1
:10091000FF3A0021B7F1004F0DF143088DF8431065
:1009200024D002202B23002F01DA7F422D230A211D
:10093000021EA0F1010000DC5FB197FBF1FC97FB08
:10094000F1F201FB1C7C17460CF1300C08F801CDCC
:10095000EEE7A8F1010003702188090501D54521C2
:1009600000E06521A0F1010800F8011C09980FA919
:10097000A1EB0807FF1D00B10120411901EBEA704E
:10098000A1693844081A401EA0612078C00602D42C
:100990002046FFF721FD099828B1D4E901219047AD
:1009A000206A401C20622078C00622D52046FFF72E
:1009B00013FD1EE0002E04DBB34502DD01A8805DBF
:1009C00000E03020D4E901219047206A401C2062D9
:1009D000761CAAF101005FEA000A0AD100F0BCF916
:1009E000C0680168405CD4E901219047206A401C3E
:1009F0002062281EA5F10105DCDC07E0D4E9012115
:100A000018F8010B9047206A401C2062381EA7F19D
:100A10000107F3DC2046FFF7F5FC032011B041E6A7
:100A20002DE9F04F04460D46D21D22F0070089B093
:100A3000D0E900974846394603F04AF80246F80FD5
:100A400001D02D2307E02068810701D52B2302E088
:100A5000202101EAC0038DF820300BB1012000E015
:100A60000020032A824601D0072A04DB29462046BB
:100A700000F0BCF93FE12078800601D40D2500E0AC
:100A8000E569C7F30A560D2D49DA00214FEA175BD5
:100A900008464FF00000002F00F4400007DA00EB9A
:100AA00080004FF4400100EBD07001EA6000811536
:100AB000012901DD4FF0FF3100224FEA850CBCF126
:100AC000180F06D31346ACF118004FF08052C24005
:100AD00003E04FF4801323FA0CF30CF10C0CBCF17F
:100AE000200F04D3ACF1200C09FA0CF001E007FA56
:100AF0000CF000294FF0004801DD18B90FE00ED1CD
:100B000040450CD319EB02095F4121B9404502D1A0
:100B10009F4329EA0209BBEB175F00D0761C2088AF
:100B2000000502D57B48784402E07A4878441938B9
:100B300008AA302302F80A30037C0AF10101002ED2
:100B40000AF1020A53546A4602DC4FF0300101E018
:100B50004FF031014FF001088DF8001002D0A6F2DD
:100B6000FF3603E059EA470100D06B4E002D02DC4E
:100B70002178090704D54FF002082E218DF80110C5
:100B8000C44600210BE0C7F303433F01C35C491C8B
:100B90006D1E02F80830052908F1010801DA002D60
:100BA000F1DC00210CE000EB1973491C1B786D1E71
:100BB000082902F808304FEA091908F1010801DA9A
:100BC000002DF0DC21688B0602D516E0A8F10108A3
:100BD000E04505DD02EB080313F8013C302BF5D0AE
:100BE000B8F1000F09DD02EB080313F8013C2E2BCE
:100BF00003D1090701D4A8F10108002D05DD3E212C
:100C000002F808106D1E08F10108407C002E02F861
:100C1000080008F1010804DA2D20764202F80800E5
:100C200002E02B2002F808000A214FF47A70864275
:100C300008F101080BDB96FBF0F3303302F80830C3
:100C400096FBF0F308F1010800FB136601E0642E47
:100C50000CDB642096FBF0F3303302F8083096FB8F
:100C6000F0F308F1010800FB136601E00A2E06DB31
:100C700096FBF1F0303002F8080008F1010896FB0D
:100C8000F1F001FB1060303002F80800A16908F1B2
:100C9000010808EB050202EB0A00081AA06120789F
:100CA000C00602D42046FFF797FB216A08AE01EB8D
:100CB0000A00206204E0D4E9012116F8010B9047F4
:100CC000BAF1010AF7D22078C00602D52046FFF714
:100CD00083FB6E4609E016F8010B3E280FD0D4E9DD
:100CE00001219047206A401C2062B8F10108F2D22D
:100CF0002046FFF787FB09B00320BDE8F08F206A8C
:100D00002844206203E0D4E90121302090476D1E81
:100D1000EBD3F8E74631000002FCFFFF01694A1CF3
:100D200002610878704700B58FB0CDE9013100212C
:100D3000059105497944CDE9031011466846FFF74E
:100D400073FB0FB000BD0000E5FFFFFF0A6802F86B
:100D5000010B0A6070470000004870473000002017
:100D600030B5B0F10A0271F100034FEA900E4EEA7D
:100D7000817EB0EB0E0061EB91014FEA101E4EEA4E
:100D8000017E10EB0E0041EB11114FEA102E4EEADE
:100D9000016E10EB0E0041EB11214FEA104E4EEAAE
:100DA000014E10EB0E0041EB1141401841F10001E2
:100DB0004FEAD00040EA41704FEAD1014FEA810486
:100DC00044EA907410EB800544EB01046D1944EB88
:100DD0000404521BA3414FF0000348BF0A3200D560
:100DE00030BD401C41F1000130BD00002DE9F04153
:100DF0001F46044603260168072A01F4006004DB4D
:100E000008B116A505E016A503E008B115A500E098
:100E100015A521F010002060A069C01EA0610FB1CF
:100E2000401EA0612046FFF7D7FA4FB1D4E9012157
:100E300038469047206A401C2062C01C206206E0B1
:100E4000206AFAE7D4E9012115F8010B9047761ED4
:100E5000F8D22046FFF7D6FABDE8F0814E414E00A9
:100E60006E616E00494E4600696E66002DE9F047DE
:100E7000814616468AB0354878440DC88DE80D0085
:100E800032487844801C03AC0DC884E80D0041F65C
:100E90009B300844372190FBF1F290FBF1F5A5F16E
:100EA000800501FB12041B3C02D56442012000E0D6
:100EB0000020DFF898A080460027FA44AAF1BE0A75
:100EC0000EE0E0070AD03246684607EB47010123EF
:100ED0000AEB810102F0C5FC8DE8070064107F1C5D
:100EE000002CEED1194F7F44AE3F19E0E80715D032
:100EF00007EB04100DF1180A90E80E008AE80E00C6
:100F0000C068F04201D1981908903246012306A921
:100F100003A802F0A6FC03AB83E807006D10641C75
:100F2000002DE3D14FF0010332466946B8F1000FBE
:100F300003A802D002F080FC01E002F092FCC9E9B3
:100F40000001C9F808200AB0BDE8F087842E00002F
:100F500000487047100000207546FFF7F9FFAE46C5
:100F600005006946534620F00700854618B020B5B5
:100F7000FFF794F9BDE820404FF000064FF000075E
:100F80004FF000084FF0000BAC46ACE8C009ACE8ED
:100F9000C009ACE8C009ACE8C00921F007018D46E2
:100FA000704710B50446AFF300802046BDE81040FE
:100FB000FFF75FB90000000030B44FF0013C50F87B
:100FC000042B51F8043BCCFA52F4D51A20D1FCB9C9
:100FD00050F8042B51F8043BCCFA52F4D51A17D12F
:100FE000B4B950F8042B51F8043BCCFA52F4D51A9A
:100FF0000ED16CB950F8042B51F8043BCCFA52F4E2
:10100000D51A05D1002CDAD030BC4FF00000704763
:1010100029BAB1FA81F111F01801D1F12000844010
:10102000F2D1CA40CB4012F0FF0213F0FF0330BCF4
:10103000D01A704701491820ABBEFEE72600020017
:1010400070470000FEE7000010B586B0002043F6B0
:1010500030010190C4F202010A68002442F001024A
:101060000A600968C4F2020401F0010101910199CA
:101070004EF6FC51CEF200010A6842F080720A601E
:1010800041F20001CEF2000148600A6842F001021C
:101090000A600221112205900191CDE902200491FC
:1010A00001A9204600F0F2FC20460221012200F0B6
:1010B000CBFD06B010BD00002DE9F04F85B041F228
:1010C0000406002440F2080B4DF68365CEF20006BC
:1010D000C4F2020400274FF0020AC2F2000BC4F26D
:1010E0001B354FF000084FF000090CE00138B0FA52
:1010F00080F0400900FA08F008F10108B8F1080F83
:1011000049EA000970D0112001A981E88104204634
:1011100069460497CDF800A000F0B8FC20460221F3
:10112000002200F091FD3068DBF80010A1FB0512F1
:101130006FF0010101EA52413268121A8A420BD261
:101140003268121A8A4207D23268121A8A4203D2CD
:101150003268121A8A42EFD320460221012200F09F
:1011600073FD0120029020466946CDE90377CDE961
:1011700000A700F08BFC3068DBF80010A1FB051223
:10118000910C01EB410189003268121A8A420BD29C
:101190003268121A8A4207D23268121A8A4203D27D
:1011A0003268121A8A42EFD32046022100F03EFD37
:1011B0003168DBF80020A2FB05239A0C32235A4346
:1011C00033685B1A934291D233685B1A9342BFF43F
:1011D0008DAF33685B1A9342BFF488AF33685B1AF4
:1011E0009342EDD382E700BF5FFA89F005B0BDE816
:1011F000F08F000010B500F031F8CC2000F0B8F806
:10120000442000F0B5F840F2EE2000F02BFC00F096
:1012100025F8CC2000F0ACF8BE2000F0A9F8FFF7CC
:101220004BFF0446FFF748FF010209B244EA0020E1
:10123000B1F1FF3FD8BF404200B206A1C8BF0431A0
:1012400091ED000A01EE100AB8EEC11A20EE010A73
:1012500010BD00BF000080BD0000803D2DE9F043BF
:1012600085B00024C4F2020400200221112241F2C0
:10127000040504900091CDE90120039169462046C0
:10128000CEF2000500F002FC20460221002200F010
:10129000DBFC40F20808C2F200082868D8F8001009
:1012A0004DF68369C4F21B39A1FB0912910C0901A7
:1012B000A1EB9241490100BF2A68121A8A420BD25F
:1012C0002A68121A8A4207D22A68121A8A4203D25C
:1012D0002A68121A8A42EFD32046022101220226EE
:1012E000012700F0B1FC00200490CDE90060CDE9B9
:1012F00002706946204600F0C9FB2868D8F8001043
:10130000A1FB0912910C4622514300BF2A68121A10
:101310008A420BD22A68121A8A4207D22A68121A03
:101320008A4203D22A68121A8A42EFD32046022147
:1013300000F07CFC2868D8F80010A1FB0912910C81
:101340004FF4CD72514300BF2A68121A8A420BD261
:101350002A68121A8A4207D22A68121A8A4203D2CB
:101360002A68121A8A42EFD305B0BDE8F083000064
:101370002DE9F04F85B041F20407002540F2080640
:101380004DF6836A0446CEF20007C4F202054FF020
:1013900000094FF0020BC2F20006C4F21B3A4FF0F4
:1013A000000807E008F10108B8F1080F4FEA5404FB
:1013B00000F08080112001A981E8010A28466946D1
:1013C000CDF81090CDF800B000F060FB2846022167
:1013D000002200F039FC38683168A1FB0A12E107ED
:1013E0004FEA924132D1C1EB011189003A68121AD9
:1013F0008A420BD23A68121A8A4207D23A68121A03
:101400008A4203D23A68121A8A42EFD3284602214E
:10141000012200F019FC38683168A1FB0A126FF054
:10142000010101EA524100BF3A68121A8A42B9D258
:101430003A68121A8A42B5D23A68121A8A42B1D26E
:101440003A68121A8A42EFD3ACE700BF490000BFE6
:101450003A68121A8A420BD23A68121A8A4207D2A2
:101460003A68121A8A4203D23A68121A8A42EFD3B1
:1014700028460221012200F0E7FB38683168A1FB11
:101480000A12910C0901A1EB924189003A68121AE3
:101490008A42BFF487AF3A68121A8A42BFF482AF19
:1014A0003A68121A8A42BFF47DAF3A68121A8A4229
:1014B000ECD377E705B0BDE8F08F0000704700007F
:1014C00070B581B00022009290F83C20012A03D12F
:1014D0000221084601B070BD0E6801220A2E80F874
:1014E0003C2009D3B2B25200D0F800E012FA86F2E2
:1014F0001E3A0EF10C0305E0D0F800E006EB4602C0
:101500000EF110034FF0070C1D680CFA02F4A5430E
:101510001D608D681C6805FA02F222431A60496852
:1015200006290FD801EB81014A1F71461F2351F88C
:10153000345F934025EA03030B60B3B203FA02F26F
:1015400014E000BF01EB81030C29B2B204D871464C
:1015500051F8304F233B03E0714651F82C4F413B8B
:101560001F259D4024EA05059A400D600B6842F254
:10157000043CC4F2010C1A43ACF541739E450A6069
:101580003BD1122E06D1DCF8001041F48001CCF8DA
:10159000001032E026F0010110292ED1DCF80010F5
:1015A000102E41F40001CCF8001026D140F20801C1
:1015B000C2F2000109684DF68362C4F21B32A1FB3E
:1015C0000212910C01EB8101490000910099A1B137
:1015D000009901390091009979B100990139009180
:1015E000009951B1009901390091009929B10099F0
:1015F0000139009100990029EAD1002180F83C10BE
:10160000084601B070BD00000068C06C7047000063
:10161000002804BF0120704710B50446006C002864
:101620003ED0206CC00645D4206C41F202118843A4
:10163000023042F204312064C4F20101086820F44F
:10164000403008600A6894E809101A43D4F810E0A2
:101650000A604168012321F4807141604168C0F64D
:10166000007341EA0E214160416821F04071416000
:10167000416841EA0C014160816821F400618160A8
:10168000E168826811438160A16A8268994222F010
:1016900070628260826813D122F0405119E000BF6D
:1016A000204600F065F80020606484F83C00206C5F
:1016B000C006B9D50120002184F83C1010BD00BF40
:1016C00011438160816821F040518160E16A826844
:1016D00011438160816821F0020181608168227E6E
:1016E00094F8203041EA42018160416883B141F4BD
:1016F0000061416041684EF2000221F460414160A6
:10170000616ACFF6FF72436802EB4131194301E091
:1017100021F400614160C16A40F2000C21F47001C3
:10172000C162E2696169CFF6F07CC36A0CEB0252D8
:101730001A43C262826822F40072826094F83020F8
:10174000836843EA42228260826822F48062826077
:10175000826842EA8121816000206064216C01225C
:1017600062F301012164002184F83C1010BD0000E7
:1017700080B586B042F200010068C4F20101002287
:1017800088420592049201D006B080BD43F6300035
:101790000092C4F20200436943F4807343614369D9
:1017A00003F480730093009B0092036843F00103ED
:1017B0000360006800F00100009000980120019093
:1017C0000320CDE9020201F5604001A900F05EF9B5
:1017D00006B080BD70B5044600680D4682685205AB
:1017E00044BF80685FEAC05038D400F033FA216803
:1017F0000A68920749D40646681C3CD0DDB90868DF
:10180000800721D5086880073FD4086880071BD56A
:101810000868800739D40868800715D508688007EC
:1018200033D4086880070FD508688007E7D52CE017
:101830000868800729D400F00DFA801B2168A842AF
:10184000F6D908688007F3D4206C40F004002064C7
:10185000002084F83C00032070BD00BF206C40F0E5
:1018600020002064002084F83C00012070BD00BFEF
:101870000868800709D40868800706D408688007CC
:101880005CBF08685FEA8070F2D56FF012000860F4
:10189000206C40F400702064886810F0405F01D034
:1018A000002070BD207E0028FAD1C86A10F4700FA5
:1018B00002D088684005F3D4206C20F48070206446
:1018C000206CC004ECD4206C40F0010020640020A7
:1018D00070BD000010B581B00021009190F83C105F
:1018E000012903D1022001B010BD00BF046801210D
:1018F00080F83C10214651F8083FDB0729D10B68DE
:101900004DF6836243F001030B6040F20803C2F21C
:1019100000031B68C4F21B32A3FB02239A0C02EBE8
:1019200042020092009AA2B1009A013A0092009AF3
:101930007AB1009A013A0092009A52B1009A013AA3
:101940000092009A2AB1009A013A0092009A002A65
:10195000EAD10A68036CD2070CD143F0100101648C
:1019600000F1440101200A6810430860002001B022
:1019700010BD00BF40F2017223EA020202F580723C
:1019800002646268520504D5026C012363F30D32D0
:101990000264026C4FF0000E0023D20444BF426C7C
:1019A00022F0060342F2043C436480F83CE06FF00E
:1019B0002200C4F2010C2060DCF80000C0060DD04B
:1019C000ACF5417084422BD14FF60450CFF6FF7036
:1019D0005CF8000010F0405F22D125E042F20000E8
:1019E000C4F20100844217D042F20020C4F2010088
:1019F00084420DD042F20010C4F2010084420FD1A3
:101A0000DCF80000C00607D0ACF58270844207D134
:101A1000DCF80000C00603D4086810F0405F03D073
:101A2000002001B010BD00BF4FF080409BE70000D8
:101A300090F83C10012904BF0220704701688A68B1
:101A400022F001028A608968C90705D1016C41F260
:101A50000112914301310164002180F83C100846D5
:101A600070470000B0B5044600F0F4F8054640F2B7
:101A70000000C2F200000078611C18BF044400BFDF
:101A800000F0E8F8401BA042FAD3B0BD2DE9F04FBA
:101A900082B000F13E4707F1FF77860546EA9727B7
:101AA00041F60046C4F20206082243F6004EB04258
:101AB00008BF0722C4F2010E072F38BF3A4600269E
:101AC00000274FF00008009209E000BF08F101086C
:101AD0000237B8F1100F06F1040600F0A3800D687C
:101AE000012202FA08F415EA0409EFD0D1F804B093
:101AF00003220BF0030CACF10105BA40012D6FEA93
:101B0000020A0FD88268CD6802EA0A02BD402A4361
:101B100082604268A243CBF3001404FA08F4224323
:101B2000426005E0BCF1030F02D14FF0030C1EE050
:101B3000C2688C6802EA0A02BC402243BCF1020F70
:101B4000C26014D16FF0030202EA58020244D2F8D4
:101B500020C006F01C040F230D69A3402CEA0303E8
:101B6000A5402B431362D1F804B00BF0030C0268BC
:101B70000CFA07F302EA0A021A431BF4403F026020
:101B8000A4D0002243F644030192C4F202031A686F
:101B90004FF6084C42F480421A601A68CFF6FF7C78
:101BA00002F480420192019A28F00302724452F832
:101BB0000C3006F00C050F24AC40A343009C04FA43
:101BC00005F52B4342F80C30DEF808204B6842EA5A
:101BD000090543F60C4CDC0258BF22EA0905CEF891
:101BE0000850C4F2010CDCF800209C0242EA09050E
:101BF00058BF22EA0905CCF80050DEF804209C0307
:101C000042EA090558BF22EA0905CEF80450DEF879
:101C10000020DB0342EA090558BF22EA0905CEF895
:101C2000005053E702B0BDE8F08F000000690840A3
:101C300018BF012070470000426902EA0103914386
:101C400041EA034181617047002A08BF09048161AC
:101C50007047000040F21810C2F2000000687047A0
:101C6000002804BF01207047F0B581B0044690F809
:101C70003D0028B9002084F83C00204600F090F98F
:101C8000242084F83D002068016821F001010160F2
:101C9000016841F400410160016821F400410160E4
:101CA00000F00CFB636848F2A16CC0F2010C40F636
:101CB0000011C0F23D0163453CBF48F28041C0F2D3
:101CC0001E01884202D2012001B0F0BD4DF68361B1
:101CD000C4F21B31A0FB01122168970CD1F804E07B
:101CE0004FF496762EF03F0545EA92454D607743D6
:101CF00048F638160D6AC0F24106A7FB067625F0B5
:101D00003F07634538BF960C721C3A430A62CA69A2
:101D100048F2A0664CF6FF77C0F20106B34222EA11
:101D200007020BD801385B00B0FBF3F001306FF312
:101D30001F30042898BF04201BE000BFA7680138AB
:101D400057B119277B43B0FBF3F001306FF31F301D
:101D500070B100F5804007E003EB4303B0FBF3F004
:101D600001306FF31F3018B100F5004001E000BFF3
:101D700001201043C8610868D4E9072320F0C0009F
:101D8000104318430860886848F2FF3204F10C07DA
:101D900090438CCF18431043A6698860C86820F030
:101DA000FF0038433043C860086840F00100086015
:101DB00000202021206484F83D10206384F83E0038
:101DC00001B0F0BD2DE9F04383B01E4617468946A9
:101DD0000446FFF73FFF94F83D10202924D1054623
:101DE000206800BF816989071AD5FFF733FF411BBF
:101DF00020681A29F6D381698907F3D500202021AC
:101E0000206384F83D1084F83E00216C41F02001ED
:101E1000216484F83C00022003B0BDE8F08300BFD9
:101E200094F83C10012903D1022003B0BDE8F083EF
:101E3000012184F83C100168C90703D1016841F011
:101E400001010160016840F2020821F400610160B3
:101E5000212184F83D10102184F83E1000212164D6
:101E600067626685618DC0F201082185A8F10211C3
:101E7000E162E16A0A9E11F5803F18BF01291DD178
:101E8000016841F48071016020464FF00111002289
:101E90003346009500F0AAFC50B120680068C005E8
:101EA00044BF4FF400702064012003B0BDE8F0830C
:101EB0002069B0F5804F07D1FE2015E00829DFD05A
:101EC000216B1229DCD0DFE7062000EAD910216857
:101ED000F030086108F10601204632462B4600F03A
:101EE0006BFD0028E0D1FF20216800EA09000861AD
:101EF0002046414632462B4600F05EFD0028D3D1F5
:101F00000020029020684169029180690290029845
:101F100006E000BF204631462A4600F009FC18BB07
:101F2000208D68B3204631462A4600F0B1FDD8B96D
:101F3000606A2168024612F8013B0B616262628DA1
:101F4000013A6285228D531E23854F697F07E1D5B3
:101F50001B04DFD0437802300B616062608D013872
:101F60006085901E2085D5E7206C04289CD12068D0
:101F7000016841F400710160012003B0BDE8F08305
:101F80002068016841F400710160202084F83D0060
:101F9000002084F83E0084F83C0003B0BDE8F083E4
:101FA000016845F20040C4F20000814218BF70474A
:101FB000B0B586B0002443F630050194C4F20205A2
:101FC000296800F5D83041F002012960296801F044
:101FD000020101910199C02101911221CDE9021460
:101FE000032104910421059101A9FFF74FFD0094FD
:101FF000286940F400102861286900F4001000905E
:10200000009806B0BDE8B0407047000040F2000004
:1020100040F21811C2F20000C2F2000100780A6812
:10202000104408607047000080B543F60040C4F2D9
:102030000200016841F400710160016841F48061AF
:102040000160016841F480710160032000F074F8C0
:102050000F2000F005F800F027F8002080BD0000F8
:1020600070B540F20006C2F2000640F20801327874
:10207000C2F200014FF47A730968B3FBF2F204462E
:10208000B1FBF2F1084600F03BFB0F2C4FF00105CD
:1020900008D838B94FF0FF3021460022002500F063
:1020A0001FF87460284670BD82B0002043F64001DE
:1020B0000190C4F202014A6842F480424A604A68D0
:1020C00002F480420192019A0090086840F080502A
:1020D0000860086800F080500090009802B07047D7
:1020E00010B54EF60C5CCEF2000CDCF80030C3F3F9
:1020F000022E8EF00704042C28BF0424BEF1030333
:102100004FF0FF3E0EFA04F438BF0023A14399407C
:102110000EFA03F39A43114300F00F0200F16043FB
:102120000901043A03F564436244002848BF02F100
:102130000C03197010BD00004EF60C51CEF20001D8
:102140000A684FF6FF031A4060F30A2242F08060EB
:1021500040F0FD7008607047002804BF0120704700
:102160002DE9F04143F60808C4F202080446D8F805
:10217000F8030D4600F00700884207D288F8F853AC
:10218000D8F8F80300F00700A84277D1206881074B
:1021900017D5410705D5D8F8001041F4E051C8F82B
:1021A0000010010705D5D8F8001041F46041C8F8C7
:1021B0000010D8F80010A26821F0F0011143C8F80F
:1021C0000010C00740D1D8F8F80300F00700A8427B
:1021D00007D988F8F853D8F8F80300F00700A842A8
:1021E0004CD12068410707D5D8F80010E26821F4E7
:1021F000E0511143C8F80010000708D5D8F80000D6
:10220000216920F4604040EAC100C8F8000000F0F5
:1022100069F8D8F8001043F61852C1F30311C0F65C
:102220000002515C40F2080220FA01F140F2040081
:10223000C2F200000068C2F200021160FFF710FF56
:102240000020BDE8F08100BF6068811E022907D22E
:1022500058F8081C89015CBF0120BDE8F08111E03D
:10226000012807D158F8081C89035CBF0120BDE88C
:10227000F08107E058F8081C890703D40120BDE865
:10228000F08100BFD8F8001021F003010843C8F81E
:102290000000FFF7DFFC064641F28837D8F800005F
:1022A000616800F00C00B0EB810F8CD0FFF7D2FC1E
:1022B000801BB842F2D90320BDE8F08140F208004B
:1022C00043F60801C2F20000C4F202010068096886
:1022D00043F62852C1F38221C0F60002515CC84087
:1022E0007047000010B543F60404C4F202046068AD
:1022F00000F00C0008280BD0042819BF42F200405F
:10230000C0F2F40047F64000C0F27D1010BD00BFDF
:10231000206821682368490247F64001C0F27D1118
:1023200000F03F02C3F388105CBF42F20041C0F2EC
:10233000F401A1FB00010023FDF7C2FF2168022286
:10234000C1F3014102EB4101B0FBF1F010BD00000F
:10235000002804BF012070472DE9F04182B00446F7
:10236000007843F60006C007C4F202060CD0B0683D
:1023700000F00C00042840F081803068800303D511
:102380006068002800F06A81207880071BD5B0685B
:1023900010F00C0F09D0B06800F00C00082840F0D5
:1023A00087807068400200F183803068800703D521
:1023B000E068012840F052813068216920F0F8007F
:1023C00040EAC10030602078000713D4207840072D
:1023D0002AD4A569002D00F03C81B06800F00C0003
:1023E000082840F0A180012D40F01081012002B0AA
:1023F000BDE8F0816069002840F20000C4F2472087
:1024000000F07E800121C0F8801EFFF723FC054606
:10241000706F8007DAD4FFF71DFC401B0228F7D944
:10242000032002B0BDE8F081306C5FEAC0080AD436
:1024300000200190306C40F080503064306C00F02F
:1024400080500190019847F20007C4F200073868F5
:10245000C00547D4386840F480703860FFF7FAFB55
:10246000054600BF3868C0053CD4FFF7F3FB401BAE
:102470000228F7D9032002B0BDE8F081B06800F06F
:102480000C00082803D1706840023FF576AF606801
:10249000B0F5803F07D0B0F5A02F40F09B803068AA
:1024A00040F480203060306840F4803030609BE041
:1024B000E06800285CD00020C4F2472001210160C0
:1024C000FFF7C8FB054600BF306880073FF574AFD3
:1024D000FFF7C0FB401B0228F6D9032002B0BDE87D
:1024E000F08100BFA068012805D0052854D1306FC5
:1024F00040F004003067306F40F00100306755E075
:102500000021C0F8801EFFF7A5FB0546706F80070D
:102510007FF55CAFFFF79EFB401B0228F6D9032036
:1025200002B0BDE8F08100BF0027C4F247270020B9
:102530003866FFF78FFB022D05460DD1306880010C
:1025400040F19080FFF786FB401B02284FF003000C
:10255000F4D902B0BDE8F0813068800179D5FFF789
:1025600079FB401B02284FF00300F5D9F1E700BFCB
:102570000020C4F2472000210160FFF76BFB0546F5
:10258000306880077FF51FAFFFF764FB401B022810
:102590004FF00300F4D9DCE7316F002821F001018E
:1025A0003167316F21F0040131677DD0FFF752FBB5
:1025B000054641F2883700BF306F800700F1868002
:1025C000FFF748FB401BB842F6D9032002B0BDE834
:1025D000F08100BF3168002821F48031316031681A
:1025E00021F4802131607BD0FFF734FB054600BF2A
:1025F000306880033FF5C8AEFFF72CFB401B642812
:10260000F6D9032002B0BDE8F08100BF7068E1692F
:1026100000F480028A4221D1216A00F03F028A42FE
:102620001CD147F6C071626A0140B1EB821F15D11F
:10263000A16A4FF6FF73C903994300F44032A1F534
:1026400080318A420AD1E16A00F07060B0EB016F1C
:1026500004D1002002B0BDE8F08100BF012002B02B
:10266000BDE8F08104F11C052FCD084340EA82103B
:10267000D9034FF6FF729143A1F5803140EA05601E
:102680000843706001203866FFF7E4FA044600BF93
:1026900030688001DDD4FFF7DDFA001B02284FF01F
:1026A0000300F5D955E700BFFFF7D4FA054641F21C
:1026B000883700BF306F800708D5FFF7CBFA401B83
:1026C000B8424FF00300F5D943E700BFB8F1000F5F
:1026D0003FF57FAE306C20F08050306479E600BF6B
:1026E000FFF7B8FA054600BF306880037FF54CAEAF
:1026F000FFF7B0FA401B64284FF00300F4D928E735
:10270000411E0020B0EB116F1CBF012070474EF23C
:102710001002CEF2000251604EF62351CEF20001BB
:10272000F0230B700721906011607047FEE70000F6
:1027300070B50368044653F8140F400711D40E46D1
:10274000481C29D086BB00BF1868400527D4FFF776
:1027500081FA236853F8140F400737D518684007EB
:10276000F2D5002070BD00BF18684007F9D4186882
:10277000400514D418684007F3D4186840050ED4F7
:1027800018684007EDD41868400508D41868400759
:102790004FF0000048BF70BD18684005E4D56FF4E5
:1027A00080601860042012E0154603E053F8140F0F
:1027B0004007D6D418684005F1D4FFF74BFA401B08
:1027C0002368B042F2D958694007EFD42020002195
:1027D0002022216384F83D2084F83E10226C1043AF
:1027E0002064012084F83C1070BD00002DE9F04108
:1027F000054600681E46144601F47F0201338FB27D
:1028000042D0DDF81880B2F5803F40F08780406903
:102810003840C01BB0FA80F04009A04240F0C880A8
:102820004EB924E040693840C01BB0FA80F040093E
:10283000A04240F0BD80FFF70DFAA0EB0801286828
:10284000B142EFD941693940C91BB1FA81F1490957
:10285000A142E7D19BE000BF40693840C01BB0FAFD
:1028600080F04009A0424FF0000040F0A280FFF746
:10287000F1F9286841693940C91BB1FA81F1490968
:10288000A142E9D183E000BFB2F5803F24D100BF6F
:1028900041693940C91BB1FA81F14909A14240F0AF
:1028A000878041693940C91BB1FA81F14909A142C8
:1028B00040F07E8041693940C91BB1FA81F1490974
:1028C000A14275D141693940C91BB1FA81F1490969
:1028D000A142DDD06CE000BF81693940C91BB1FA6B
:1028E00081F14909A14263D181693940C91BB1FA1B
:1028F00081F14909A1425BD181693940C91BB1FA13
:1029000081F14909A14253D181693940C91BB1FA0A
:1029100081F14909A142DFD04AE000BF8069384017
:10292000C01BB0FA80F04009A04241D146B923E073
:1029300080693840C01BB0FA80F04009A04237D10E
:10294000FFF788F9A0EB08012868B142F0D9816946
:102950003940C91BB1FA81F14909A142E8D116E019
:1029600080693840C01BB0FA80F04009A0424FF0A7
:10297000000018BFBDE8F081FFF76CF92868816995
:102980003940C91BB1FA81F14909A142E8D10020BF
:102990002021286385F83D1085F83E00296C41F020
:1029A0002001296485F83C000120BDE8F08100BFCA
:1029B0000020BDE8F0810000F0B581B00446006859
:1029C0001D4643698FB203EA0701B94202D10020D4
:1029D00001B0F0BD4169164601323FD049053FD4F0
:1029E000CEB100BFFFF736F9411B2068B14203D9D1
:1029F00041693940B94215D141693940B942E6D0FF
:102A000041694905EED52BE041693940B942DED034
:102A10004169490524D4FFF71DF92068416939400F
:102A2000B942F1D0202023E041693940B942CED0EB
:102A30004169490514D441693940B942C7D0416957
:102A400049050DD441693940B942C0D041694905B1
:102A500006D441693940B942B9D041694905E3D545
:102A6000016841F4007101606FF4806141610420EC
:102A700000212022216384F83D2084F83E10226C3E
:102A80001043206484F83C10012001B0F0BD000028
:102A900070B50368044653F8140F000611D40E46AF
:102AA000481C29D086BB00BF1868400527D4FFF713
:102AB000D1F8236853F8140F000637D518680006BC
:102AC000F2D5002070BD00BF18680006F9D4186860
:102AD000400514D418680006F3D4186840050ED4D5
:102AE00018680006EDD41868400508D41868000678
:102AF0004FF0000048BF70BD18684005E4D56FF482
:102B000080601860042012E0154603E053F8140FAB
:102B10000006D6D418684005F1D4FFF79BF8401B97
:102B20002368B042F2D958690006EFD42020002172
:102B30002022216384F83D2084F83E10226C10434B
:102B40002064012084F83C1070BD0000FEE7000006
:102B5000FEE700002DE9F04F83B040F2C4040026E8
:102B60006427C2F200040DF1080A4FF040080DF18D
:102B70000A054FF0000900BF09F1B0008DF805000B
:102B80002046782101AA02238DF804600097FFF700
:102B900019F9204678210DF106020223ADF80660EE
:102BA0000097FFF70FF94FF48050ADF8080020466A
:102BB0007821524602230097FFF704F94FF0000BEB
:102BC000204678212A460223ADF80A800097FFF7B5
:102BD000F9F80BF101004FFA80FBBBF1FF3FEFDC8E
:102BE000B9F1070F09F10109C6D303B0BDE8F08FB1
:102BF000F0B583B064206425FEF734FF40F2C404CE
:102C00004FF42E40C2F20004ADF80A000DF10A02A2
:102C10002046782102230095FFF7D4F84FF40050A6
:102C2000ADF80A000DF10A02204678210223009532
:102C3000FFF7C8F84FF40070ADF80A000DF10A0272
:102C40002046782102230095FFF7BCF84FF430406E
:102C5000ADF80A000DF10A02204678210223009502
:102C6000FFF7B0F84FF44840ADF80A000DF10A0242
:102C70002046782102230095FFF7A4F800270DF1E4
:102C80000A02204678210223ADF80A700095FFF76A
:102C900099F84FF48050ADF80A000DF10A02204671
:102CA000782102230095FFF78DF84FF480460DF14F
:102CB0000A02204678210223ADF80A600095FFF74A
:102CC00081F84FF40140ADF80A000DF10A022046E8
:102CD000782102230095FFF775F84FF47F40ADF897
:102CE0000A000DF10A022046782102230095FFF721
:102CF00069F84FF42140ADF80A000DF10A022046B0
:102D0000782102230095FFF75DF84FF42640ADF8D7
:102D10000A000DF10A022046782102230095FFF7F0
:102D200051F84FF42840ADF80A000DF10A02204690
:102D3000782102230095FFF745F84FF47C50ADF859
:102D40000A000DF10A022046782102230095FFF7C0
:102D500039F84FF45340ADF80A000DF10A0220464D
:102D6000782102230095FFF72DF80DF10A02204685
:102D700078210223ADF80A700095FFF723F84FF48D
:102D80005540ADF80A000DF10A02204678210223D1
:102D90000095FFF717F84FF40040ADF80A000DF169
:102DA0000A022046782102230095FFF70BF84FF422
:102DB0005940ADF80A000DF10A022046782102239D
:102DC0000095FEF7FFFF4FF47140ADF80A000DF1DA
:102DD0000A022046782102230095FEF7F3FF4FF404
:102DE0005A40ADF80A000DF10A022046782102236C
:102DF0000095FEF7E7FF4FF49050ADF80A000DF193
:102E00000A022046782102230095FEF7DBFF4FF4EB
:102E10005B40ADF80A000DF10A022046782102233A
:102E20000095FEF7CFFF0DF10A022046782102231C
:102E3000ADF80A600095FEF7C5FF4FF40D40ADF800
:102E40000A000DF10A022046782102230095FEF7C0
:102E5000B9FF4FF4A050ADF80A000DF10A02204668
:102E6000782102230095FEF7ADFF4FF42F40ADF817
:102E70000A000DF10A022046782102230095FEF790
:102E8000A1FFFFF767FE03B0F0BD000070B586B08C
:102E90000239C9B2022904469ABF0CA050F8215049
:102EA00008A510EE100A00F04FFE01AE02460B46D8
:102EB00030462946FDF77CFA2046314600F00CF8F2
:102EC00006B070BD252E3166000000006A3F000884
:102ED0006F3F0008743F00082DE9F04F87B00728C6
:102EE00028BF072040F2C40540F0B000C2F2000540
:102EF0000C4600268DF8130064270DF112022846B7
:102F0000782102238DF812600097FEF75BFF05AA77
:102F1000284678210223ADF814600097FEF752FF8F
:102F20004FF48050ADF816000DF1160228467821B6
:102F300002230097FEF746FF2078002879D040F260
:102F4000C409611C00264024C2F2000964250291D4
:102F50002038C1B25E2988BF0020C1B2490051FAB1
:102F600080F043F63051C0F6000101EB400811F843
:102F7000100006AF8DF81900484678213A46022322
:102F80008DF818400095FEF71DFF98F8010098F89D
:102F9000041098F802A098F803B003918DF8190076
:102FA000484678213A4602238DF818400095FEF7EE
:102FB00009FF484678213A4602238DF818408DF8DB
:102FC00019A00095FEF7FEFE484678213A460223F6
:102FD0008DF818408DF819B00095FEF7F3FE0398B0
:102FE00078218DF8190048463A4602238DF818409A
:102FF0000095FEF7E7FE98F8050078218DF8190096
:1030000048463A4602238DF818400095FEF7DAFE4E
:10301000484678210DF11A020223ADF81A400095B6
:10302000FEF7D0FE0E2E04D80298805D01360028EF
:103030008ED107B0BDE8F08F7047000070470000E8
:10304000FEF7E4BF4EF68850CEF20000016841F46E
:103050007001016070470000FEE7000092B043F687
:10306000300640F60044C4F20206C4F20204FEF741
:10307000DBFF06AD281D2C21FDF79AFA00270597E6
:10308000CDE90377CDE901770097306940F08050B2
:103090003061306900F080500090009846F20040A6
:1030A0000097CFF6FE70215841F4804121502058FE
:1030B00000F48040009000980220069001200990C2
:1030C00010200A9028460C97FFF742F910B172B60B
:1030D000FEE700BF0F20CDE9010701A80021CDE9DF
:1030E00003770597FFF738F810B172B6FEE700BF17
:1030F00000250A95019530684FF4805140F0010099
:1031000030603068002200F00100019001980195C4
:10311000306840F008003060306800F0080001902E
:1031200001980195306840F00200306030684FF43B
:10313000805600F00200019001982046FEF784FDC1
:10314000012706A920460696CDE907750995FEF7E1
:103150009DFC40F27006C2F20006A4F56C413046B8
:1031600040F80C1F0121C0F600710995057680F822
:103170002050C0E90A15C76180F83050C0E90155F8
:10318000C0E903554761FEF743FA18B172B600BFB4
:10319000FEE700BFCDE90657072006F10C050890B1
:1031A00006A92846FEF78CF910B172B6FEE700BFFB
:1031B00040F2C40045F20041C2F20000C4F2000136
:1031C00041F6802200234FF48047C0F2060280E8D7
:1031D0000E00C0E90337C0E90533C0E90733FEF745
:1031E0003FFD18B172B600BFFEE700BF20464FF4A6
:1031F0008051FEF721FDC820FEF734FC20464FF435
:103200008051FEF719FDC820FEF72CFC20464FF434
:103210008051FEF711FDC820FEF724FC20464FF434
:103220008051FEF709FDC820FEF71CFC20464FF434
:103230008051FEF701FDC820FEF714FC20464FF434
:103240008051FEF7F9FCC820FEF70CFCFFF7D0FC1C
:10325000FDF7FAFE20464FF48051FEF7EDFC4FF4E7
:103260004870FEF7FFFB20464FF48051FEF7E4FC68
:103270004FF44870FEF7F6FB20464FF48051FEF7FE
:10328000DBFC4FF44870FEF7EDFB20464FF4805115
:10329000FEF7D2FC4FF448701FE000BF2846FEF74F
:1032A000C7FBFDF7A7FF86ED020AFFF753FC1FA13E
:1032B0000020FFF711FE96ED010A02200221FFF720
:1032C000E5FD1DA10420FFF707FE96ED020A06208A
:1032D0000121FFF7DBFD4FF47A70FEF7C3FB2846B0
:1032E000FEF7F8FA28460A21FEF774FA0028D5D12D
:1032F0002846FEF789F900EE100A9FED091AB8EE8C
:10330000400A20EE010A9FED071A9FED072A20EEE2
:10331000010A20EE020A306086ED010ABEE700BF16
:103320003333534000008039E7FB9540566F6C748F
:103330006167653A0000000054656D703A00000056
:103340005FEA400C08BF91F0000F4FEA8C234FEA70
:10335000C12243EA51514FEA1C5018BF00F5F0401A
:103360004FEA300018BF41F000415FEA6C5C00F0AA
:103370002980BCF1FF3F08BF40F080407047130C2C
:1033800006BF12044FF0100C4FF0000C130E04BFD8
:1033900012020CF1080C130F04BF12010CF1040C03
:1033A000930F04BF92000CF1020CD30F04BF520024
:1033B0000CF1010C11464FF00002A0F11F00A0EB30
:1033C0000C00704711F0004F08BF704731F000410A
:1033D0003FF4D5AF0B0C06BF09044FF0100C4FF0B3
:1033E000000C0B0E04BF09020CF1080C0B0F04BFFC
:1033F00009010CF1040C8B0F04BF89000CF1020CC5
:10340000CB0F04BF49000CF1010CCCF1200322FAD0
:1034100003F341EA030102FA0CF2A0EB0C0000F105
:103420000100704723F07F4720F07F4C80EA0300C3
:1034300000F00040ACEB070303F57C5303F1FF03FE
:103440002DE9804909B44FEA144324EA03484FEABE
:10345000154B25EA0B4E0FF2042606EB13273E7898
:1034600003FB0667C7F5000707FB06F64FEAD646DB
:1034700006F102064FEA543707FB066CCCF1005CFC
:103480004FEA1C472CEA074C0CFB06F507FB06F439
:1034900004EB15464FEA961649085FEA320234BF3C
:1034A00000204FF000404FEAD13706FB07FC4FEAFF
:1034B0001C4C0CFB0BF7D21B03FB0CF761EB070159
:1034C0000CFB0EF7B0EB074072EB17420CFB08F752
:1034D00034BFA2EB0742B2EB074261EB17414FEA60
:1034E0000C444FEA910706FB07FC4FEA1C4C0CFB0F
:1034F0000BF7B0EBC74072EB573203FB0CF734BF4E
:10350000A2EBC742B2EBC74261EB57310CFB0EF79F
:10351000B0EBC70072EB57720CFB08F734BFA2EB9D
:10352000C702B2EBC70261EB57714FEA816141EA12
:1035300092114FEA826242EA90124FEA806004EBF5
:10354000CC04039F4FEAD13706FB07FC4FEA1C4C23
:103550000CFB0BF7D21B03FB0CF761EB07010CFB19
:103560000EF7B0EB074072EB17420CFB08F734BFC5
:10357000A2EB0742B2EB074261EB17414FEA8C55D1
:1035800004EB9C244FEA910706FB07FC4FEA1C4C16
:103590000CFB0BF7B0EBC74072EB573203FB0CF799
:1035A00034BFA2EBC742B2EBC74261EB57310CFB11
:1035B0000EF7B0EBC70072EB57720CFB08F734BF85
:1035C000A2EBC702B2EBC70261EB57714FEA816110
:1035D00041EA92114FEA826242EA90124FEA806019
:1035E00015EB4C2544F100044FEAD13706FB07FCEC
:1035F0004FEA1C4C0CFB0BF7D21B03FB0CF761EBE7
:1036000007010CFB0EF7B0EB074072EB17420CFB07
:1036100008F734BFA2EB0742B2EB074261EB174158
:103620004FEA813141EA92414FEA823242EA9042C6
:103630004FEA80304FEA0C7615EB1C1544F100047C
:1036400048EA03434EEA0B484FF0000EB2EB080C79
:1036500071EB030724BF624639464EEB0E0E4FF066
:10366000000B0018524149414BEB0B0BB2EB080C1D
:1036700071EB03077BF1000B24BF624639464EEB2A
:103680000E0E4FF0000B0018524149414BEB0B0B53
:10369000B2EB080C71EB03077BF1000B24BF624611
:1036A00039464EEB0E0E51EA020718BF46F00106EE
:1036B00016EB0E7655F1000254F1000103D5BDE87A
:1036C0008901BDE80088BDE88901BDE80048B61958
:1036D000524141EB0101A3F10103704780807F7EDD
:1036E0007D7C7B7A79787776767574737271717078
:1036F0006F6E6E6D6C6C6B6A6A696868676666652A
:103700006464636362616160605F5F5E5E5D5D5CB7
:103710005C5B5B5A5A595958585757565655555528
:103720005454535352525251515050504F4F4F4E88
:103730004E4D4D4D4C4C4C4B4B4B4A4A4A494949D6
:103740004848484747474746464645454544444418
:103750004443434343424242424141419C46002B41
:1037600030D477002BD04FEA37071CB503B44FF0A5
:1037700010004FF01001BAF1000F06D0BCF1000F9D
:10378000DCBF40F0080040F008014FF000000FBC23
:10379000BDE810400BF1010BBBF1010F08BF5FEA60
:1037A000170722BF12F1010211F101014FF0004190
:1037B00043F1000300F0004043EA00007047F9D3F2
:1037C0005708D0E746EA06464FEA164613F1400F7F
:1037D0001FDD13F1200FDFBF16430A4600212033FF
:1037E0005B42BED0C3F1200746EA06464FEA1646C2
:1037F00002FA07F746EA070622FA03F2C3F12007A6
:1038000001FA07F742EA070221FA03F14FF0000339
:10381000A7E746EA020646EA06464FEA164646EAA1
:103820000106BCBF46EA0646360C4FF000034FF0D7
:1038300000024FF0000194E72DE9804C70B49A46E5
:10384000934691E8380007C831EA400C48BF34EA93
:10385000430C03D5FFF7E6FDFFF780FFF0BCBDE8A2
:10386000008C2DE9804C70B49A46934691E838005C
:1038700007C810F0804F08BF13F0804F03D100F04D
:1038800005F8FFF76BFFF0BCBDE8008C20F07F4728
:1038900023F07F4C80EA030000F0004007EB0C03AC
:1038A000A3F57C53A3F1FE0392F0000F00F0B38068
:1038B00095F0000F00F077802DE901494FEA1140A3
:1038C00021EA00484FEA144624EA064700FB06FCBA
:1038D00008FB06F607FB08F818EB06484CEB164CFD
:1038E00000FB07F718EB07484CEB17404FEA124B69
:1038F00022EA0B4E4FEA154625EA06470BFB06FC6B
:103900000EFB06F607FB0EFE1EEB064E4CEB164CAE
:103910000BFB07F71EEB074E4CEB174B18EB0B0896
:1039200040F1000018EB0E0B58EB000840F10000CE
:103930008F1A4FF000014FF000063CBFC943661BD1
:1039400014BFB5EB040C00213CBFC943F61B4FEA82
:10395000174427EA04454FEA1C472CEA074C04FBAE
:10396000076205FB07F70CFB05F616EB074642EB73
:10397000174204FB0CFC16EB0C4642EB1C421BEB03
:10398000060658EB020241414EEA8E0E46EA9E06BA
:1039900001D5BDE80189B619524141EB0101A3F1FE
:1039A0000103BDE801894FEA144524EA05464FEAC0
:1039B000114721EA074C05FB07F406FB07F70CFB50
:1039C00006F111EB074144EB174405FB0CFC11EB2E
:1039D0000C4144EB1C444FEA124722EA074C05FB1A
:1039E00007F206FB07F70CFB06F616EB074642EB61
:1039F000174205FB0CFC16EB0C4642EB1C456A1803
:103A000054F1000148BF7047B619524141EB010122
:103A1000A3F10103704795F0000F37D04FEA114230
:103A200021EA02464FEA144724EA074C02FB07F159
:103A300006FB07F70CFB06F414EB074441EB1741B8
:103A400002FB0CFC14EB0C4441EB1C414FEA154704
:103A500025EA074C02FB07F506FB07F70CFB06F609
:103A600016EB074645EB174502FB0CFC16EB0C4624
:103A700045EB1C42121951F1000148BF7047B619BD
:103A8000524141EB0101A3F1010370474FEA144594
:103A900024EA05464FEA114721EA074C05FB07F1E6
:103AA00006FB07F70CFB06F212EB074241EB17414E
:103AB00005FB0CFC12EB0C4251EB1C414FF00006D5
:103AC00048BF7047921841EB0101A3F10103704711
:103AD00003B401984100009850EAC12018BF0420A7
:103AE0004A0D18BF40F0010040F2FF72B2EB515F87
:103AF00008BF40F00200012808BF052002B070474F
:103B000030380A2801D20120704700207047000099
:103B100010B500290AD00878002807D00548784455
:103B2000FDF74AFA002801D0002010BD0248784471
:103B300010BD00007E040000760400000808A0F517
:103B400000114FEA3101704743004FEAD30C4FEAAE
:103B50003C0C43401FBF40070CF1605113F0FE4F77
:103B600070471CF0006F03D10CF00041002070473B
:103B70000CF0004343EA507040EACC0010B500F06E
:103B80000EF800BF000000924FEA0001FFF7D6BF19
:103B90004FF00041A1F500214FF0000070470EF1F9
:103BA000020E2EF0030E5EF8044B244204D44FEABA
:103BB0004102B2F17F4F11D84FEA4003B3F17F4F7A
:103BC0000CD80ED14FEAD07C0CEB4C0C0CF1020C53
:103BD000B2F17F4F08BF4CEBD17C04E04FF0080CF2
:103BE00001E04FEAD17C0CEB4C0324FA03F404F01F
:103BF0000704B4F1040C06D20EEB840CBDE81040AF
:103C00004CF0010C6047DFE80CF0070802024FF0AF
:103C10000040A0F5800010BD0846420018BFD2F158
:103C2000807288BF00F0004010BDF1EE100A4FF620
:103C3000FF71C0F2C03120EA010040F04070E1EEB7
:103C4000100A7047FCF7B6BDFCF7EABE0400000896
:103C500000000000000000020001000010303132BE
:103C6000333435363738396162636465667870009D
:103C700030313233343536373839414243444546A2
:103C80005850000002400000000000A000000000AA
:103C900005400000000000C8000000000C400000CB
:103CA0000000409C00000000194000000020BCBE45
:103CB0000000000034400000BFC91B8E000000045B
:103CC000B5400000504BCFD06607E2CF01000000A6
:103CD0006C4100003E8251AADFEEA73401000000D3
:103CE000D9420000DCB5A0E23A301F97FFFFFFFF8A
:103CF000B4450000FD25A0C8E9A3C14FFFFFFFFFA9
:103D0000FF3F00000000008000000000FF3F0000B7
:103D10000000008000000000000000000000000023
:103D20000102030406070809000000000102030461
:103D300000000000000000005F0000000007000716
:103D40000000147F147F1400242A7F2A12002313FA
:103D50000864620036495522500000050300000047
:103D6000001C224100000041221C000014083E08F3
:103D7000140008083E080800005030000000080841
:103D8000080808000060600000002010080402001D
:103D90003E5149453E0000427F400000426151498A
:103DA00046002141454B31001814127F1000274571
:103DB000454539003C4A4949300001710905030075
:103DC000364949493600064949291E000036360061
:103DD00000000056360000000814224100001414B0
:103DE00014141400004122140800020151090600B5
:103DF000324979413E007E1111117E007F494949C7
:103E000036003E41414122007F4141221C007F4952
:103E1000494941007F09090901003E4149497A00A9
:103E20007F0808087F0000417F4100002040413F9B
:103E300001007F08142241007F40404040007F0283
:103E40000C027F007F0408107F003E4141413E008C
:103E50007F09090906003E4151215E007F091929A9
:103E6000460046494949310001017F0101003F40B8
:103E700040403F001F2040201F003F4038403F008F
:103E8000631408146300070870080700615149456E
:103E90004300007F4141000002040810200000415F
:103EA000417F000004020102040040404040400005
:103EB0000001020400002054545478007F48444418
:103EC0003800384444442000384444487F00385483
:103ED00054541800087E090102000C5252523E0050
:103EE0007F080404780000447D4000002040443DE9
:103EF00000007F102844000000417F4000007C0447
:103F0000180478007C0804047800384444443800DD
:103F10007C1414140800081414187C007C08040491
:103F20000800485454542000043F444020003C40C2
:103F300040207C001C2040201C003C4030403C00C5
:103F40004428102844000C5050503C004464544C09
:103F5000440000083641000000007F0000000041DE
:103F600036080000080408100800252E32660025D7
:103F70002E336600252E346600000000B83F00088E
:103F80000000002010000000EC010008C83F0008FD
:103F900010000020100700000C0200081C000000A8
:103FA00043000000F8FFFFFF0C0000000E000000BF
:103FB0000F0000002E0000000100000010000000B3
:083FC0000024F40000000000E1
:040000050800018965
:00000001FF
